{
  "contractName": "Election",
  "abi": [
    {
      "inputs": [],
      "stateMutability": "nonpayable",
      "type": "constructor"
    },
    {
      "inputs": [],
      "name": "admin",
      "outputs": [
        {
          "internalType": "address",
          "name": "",
          "type": "address"
        }
      ],
      "stateMutability": "view",
      "type": "function",
      "constant": true
    },
    {
      "inputs": [
        {
          "internalType": "uint256",
          "name": "",
          "type": "uint256"
        }
      ],
      "name": "candidateDetails",
      "outputs": [
        {
          "internalType": "uint256",
          "name": "candidateId",
          "type": "uint256"
        },
        {
          "internalType": "string",
          "name": "header",
          "type": "string"
        },
        {
          "internalType": "string",
          "name": "slogan",
          "type": "string"
        },
        {
          "internalType": "uint256",
          "name": "voteCount",
          "type": "uint256"
        },
        {
          "internalType": "string",
          "name": "image",
          "type": "string"
        }
      ],
      "stateMutability": "view",
      "type": "function",
      "constant": true
    },
    {
      "inputs": [
        {
          "internalType": "uint256",
          "name": "",
          "type": "uint256"
        }
      ],
      "name": "donations",
      "outputs": [
        {
          "internalType": "address",
          "name": "donorAddress",
          "type": "address"
        },
        {
          "internalType": "uint256",
          "name": "amount",
          "type": "uint256"
        },
        {
          "internalType": "uint256",
          "name": "donetedTo",
          "type": "uint256"
        }
      ],
      "stateMutability": "view",
      "type": "function",
      "constant": true
    },
    {
      "inputs": [
        {
          "internalType": "address",
          "name": "",
          "type": "address"
        }
      ],
      "name": "voterDetails",
      "outputs": [
        {
          "internalType": "address",
          "name": "voterAddress",
          "type": "address"
        },
        {
          "internalType": "string",
          "name": "name",
          "type": "string"
        },
        {
          "internalType": "string",
          "name": "email",
          "type": "string"
        },
        {
          "internalType": "string",
          "name": "phone",
          "type": "string"
        },
        {
          "internalType": "bool",
          "name": "isVerified",
          "type": "bool"
        },
        {
          "internalType": "bool",
          "name": "hasVoted",
          "type": "bool"
        },
        {
          "internalType": "bool",
          "name": "isRegistered",
          "type": "bool"
        },
        {
          "internalType": "string",
          "name": "govId",
          "type": "string"
        },
        {
          "internalType": "string",
          "name": "currentImage",
          "type": "string"
        },
        {
          "internalType": "string",
          "name": "voterIdNumber",
          "type": "string"
        }
      ],
      "stateMutability": "view",
      "type": "function",
      "constant": true
    },
    {
      "inputs": [
        {
          "internalType": "uint256",
          "name": "",
          "type": "uint256"
        }
      ],
      "name": "voters",
      "outputs": [
        {
          "internalType": "address",
          "name": "",
          "type": "address"
        }
      ],
      "stateMutability": "view",
      "type": "function",
      "constant": true
    },
    {
      "inputs": [],
      "name": "getAdmin",
      "outputs": [
        {
          "internalType": "address",
          "name": "",
          "type": "address"
        }
      ],
      "stateMutability": "view",
      "type": "function",
      "constant": true
    },
    {
      "inputs": [
        {
          "internalType": "string",
          "name": "_header",
          "type": "string"
        },
        {
          "internalType": "string",
          "name": "_slogan",
          "type": "string"
        },
        {
          "internalType": "string",
          "name": "_image",
          "type": "string"
        }
      ],
      "name": "addCandidate",
      "outputs": [],
      "stateMutability": "nonpayable",
      "type": "function"
    },
    {
      "inputs": [
        {
          "internalType": "string",
          "name": "_adminName",
          "type": "string"
        },
        {
          "internalType": "string",
          "name": "_adminEmail",
          "type": "string"
        },
        {
          "internalType": "string",
          "name": "_adminTitle",
          "type": "string"
        },
        {
          "internalType": "string",
          "name": "_electionTitle",
          "type": "string"
        },
        {
          "internalType": "string",
          "name": "_organizationTitle",
          "type": "string"
        }
      ],
      "name": "setElectionDetails",
      "outputs": [],
      "stateMutability": "nonpayable",
      "type": "function"
    },
    {
      "inputs": [],
      "name": "getAllCandidates",
      "outputs": [
        {
          "components": [
            {
              "internalType": "uint256",
              "name": "candidateId",
              "type": "uint256"
            },
            {
              "internalType": "string",
              "name": "header",
              "type": "string"
            },
            {
              "internalType": "string",
              "name": "slogan",
              "type": "string"
            },
            {
              "internalType": "uint256",
              "name": "voteCount",
              "type": "uint256"
            },
            {
              "internalType": "string",
              "name": "image",
              "type": "string"
            }
          ],
          "internalType": "struct Election.Candidate[]",
          "name": "",
          "type": "tuple[]"
        }
      ],
      "stateMutability": "view",
      "type": "function",
      "constant": true
    },
    {
      "inputs": [],
      "name": "getAdminName",
      "outputs": [
        {
          "internalType": "string",
          "name": "",
          "type": "string"
        }
      ],
      "stateMutability": "view",
      "type": "function",
      "constant": true
    },
    {
      "inputs": [],
      "name": "getAdminAddress",
      "outputs": [
        {
          "internalType": "address",
          "name": "",
          "type": "address"
        }
      ],
      "stateMutability": "view",
      "type": "function",
      "constant": true
    },
    {
      "inputs": [],
      "name": "getAdminEmail",
      "outputs": [
        {
          "internalType": "string",
          "name": "",
          "type": "string"
        }
      ],
      "stateMutability": "view",
      "type": "function",
      "constant": true
    },
    {
      "inputs": [],
      "name": "getAdminTitle",
      "outputs": [
        {
          "internalType": "string",
          "name": "",
          "type": "string"
        }
      ],
      "stateMutability": "view",
      "type": "function",
      "constant": true
    },
    {
      "inputs": [],
      "name": "getElectionTitle",
      "outputs": [
        {
          "internalType": "string",
          "name": "",
          "type": "string"
        }
      ],
      "stateMutability": "view",
      "type": "function",
      "constant": true
    },
    {
      "inputs": [],
      "name": "getOrganizationTitle",
      "outputs": [
        {
          "internalType": "string",
          "name": "",
          "type": "string"
        }
      ],
      "stateMutability": "view",
      "type": "function",
      "constant": true
    },
    {
      "inputs": [],
      "name": "getTotalCandidate",
      "outputs": [
        {
          "internalType": "uint256",
          "name": "",
          "type": "uint256"
        }
      ],
      "stateMutability": "view",
      "type": "function",
      "constant": true
    },
    {
      "inputs": [],
      "name": "getTotalVoter",
      "outputs": [
        {
          "internalType": "uint256",
          "name": "",
          "type": "uint256"
        }
      ],
      "stateMutability": "view",
      "type": "function",
      "constant": true
    },
    {
      "inputs": [
        {
          "internalType": "uint256",
          "name": "_amount",
          "type": "uint256"
        },
        {
          "internalType": "uint256",
          "name": "_donetedTo",
          "type": "uint256"
        }
      ],
      "name": "donate",
      "outputs": [],
      "stateMutability": "payable",
      "type": "function",
      "payable": true
    },
    {
      "inputs": [],
      "name": "getCollectedAmount",
      "outputs": [
        {
          "internalType": "uint256",
          "name": "",
          "type": "uint256"
        }
      ],
      "stateMutability": "view",
      "type": "function",
      "constant": true
    },
    {
      "inputs": [],
      "name": "getDonationDetails",
      "outputs": [
        {
          "components": [
            {
              "internalType": "address",
              "name": "donorAddress",
              "type": "address"
            },
            {
              "internalType": "uint256",
              "name": "amount",
              "type": "uint256"
            },
            {
              "internalType": "uint256",
              "name": "donetedTo",
              "type": "uint256"
            }
          ],
          "internalType": "struct Election.donationDetails[]",
          "name": "",
          "type": "tuple[]"
        }
      ],
      "stateMutability": "view",
      "type": "function",
      "constant": true
    },
    {
      "inputs": [
        {
          "internalType": "string",
          "name": "_name",
          "type": "string"
        },
        {
          "internalType": "string",
          "name": "_email",
          "type": "string"
        },
        {
          "internalType": "string",
          "name": "_phone",
          "type": "string"
        },
        {
          "internalType": "string",
          "name": "_govId",
          "type": "string"
        },
        {
          "internalType": "string",
          "name": "_currentImage",
          "type": "string"
        },
        {
          "internalType": "string",
          "name": "_voterIdNumber",
          "type": "string"
        },
        {
          "internalType": "bool",
          "name": "_isVerified",
          "type": "bool"
        }
      ],
      "name": "registerAsVoter",
      "outputs": [],
      "stateMutability": "nonpayable",
      "type": "function"
    },
    {
      "inputs": [
        {
          "internalType": "bool",
          "name": "_verifedStatus",
          "type": "bool"
        },
        {
          "internalType": "address",
          "name": "voterAddress",
          "type": "address"
        }
      ],
      "name": "verifyVoter",
      "outputs": [],
      "stateMutability": "nonpayable",
      "type": "function"
    },
    {
      "inputs": [
        {
          "internalType": "address",
          "name": "voterAddress",
          "type": "address"
        }
      ],
      "name": "rejectVoter",
      "outputs": [],
      "stateMutability": "nonpayable",
      "type": "function"
    },
    {
      "inputs": [
        {
          "internalType": "uint256",
          "name": "candidateId",
          "type": "uint256"
        }
      ],
      "name": "vote",
      "outputs": [],
      "stateMutability": "nonpayable",
      "type": "function"
    },
    {
      "inputs": [],
      "name": "endElection",
      "outputs": [],
      "stateMutability": "nonpayable",
      "type": "function"
    },
    {
      "inputs": [
        {
          "internalType": "address",
          "name": "voterAddress",
          "type": "address"
        }
      ],
      "name": "getVoterDetails",
      "outputs": [
        {
          "components": [
            {
              "internalType": "address",
              "name": "voterAddress",
              "type": "address"
            },
            {
              "internalType": "string",
              "name": "name",
              "type": "string"
            },
            {
              "internalType": "string",
              "name": "email",
              "type": "string"
            },
            {
              "internalType": "string",
              "name": "phone",
              "type": "string"
            },
            {
              "internalType": "bool",
              "name": "isVerified",
              "type": "bool"
            },
            {
              "internalType": "bool",
              "name": "hasVoted",
              "type": "bool"
            },
            {
              "internalType": "bool",
              "name": "isRegistered",
              "type": "bool"
            },
            {
              "internalType": "string",
              "name": "govId",
              "type": "string"
            },
            {
              "internalType": "string",
              "name": "currentImage",
              "type": "string"
            },
            {
              "internalType": "string",
              "name": "voterIdNumber",
              "type": "string"
            }
          ],
          "internalType": "struct Election.Voter",
          "name": "",
          "type": "tuple"
        }
      ],
      "stateMutability": "view",
      "type": "function",
      "constant": true
    },
    {
      "inputs": [],
      "name": "getAllVoters",
      "outputs": [
        {
          "components": [
            {
              "internalType": "address",
              "name": "voterAddress",
              "type": "address"
            },
            {
              "internalType": "string",
              "name": "name",
              "type": "string"
            },
            {
              "internalType": "string",
              "name": "email",
              "type": "string"
            },
            {
              "internalType": "string",
              "name": "phone",
              "type": "string"
            },
            {
              "internalType": "bool",
              "name": "isVerified",
              "type": "bool"
            },
            {
              "internalType": "bool",
              "name": "hasVoted",
              "type": "bool"
            },
            {
              "internalType": "bool",
              "name": "isRegistered",
              "type": "bool"
            },
            {
              "internalType": "string",
              "name": "govId",
              "type": "string"
            },
            {
              "internalType": "string",
              "name": "currentImage",
              "type": "string"
            },
            {
              "internalType": "string",
              "name": "voterIdNumber",
              "type": "string"
            }
          ],
          "internalType": "struct Election.Voter[]",
          "name": "",
          "type": "tuple[]"
        }
      ],
      "stateMutability": "view",
      "type": "function",
      "constant": true
    },
    {
      "inputs": [],
      "name": "getStart",
      "outputs": [
        {
          "internalType": "bool",
          "name": "",
          "type": "bool"
        }
      ],
      "stateMutability": "view",
      "type": "function",
      "constant": true
    },
    {
      "inputs": [],
      "name": "getEnd",
      "outputs": [
        {
          "internalType": "bool",
          "name": "",
          "type": "bool"
        }
      ],
      "stateMutability": "view",
      "type": "function",
      "constant": true
    },
    {
      "inputs": [],
      "name": "getWinner",
      "outputs": [
        {
          "components": [
            {
              "internalType": "uint256",
              "name": "candidateId",
              "type": "uint256"
            },
            {
              "internalType": "string",
              "name": "header",
              "type": "string"
            },
            {
              "internalType": "string",
              "name": "slogan",
              "type": "string"
            },
            {
              "internalType": "uint256",
              "name": "voteCount",
              "type": "uint256"
            },
            {
              "internalType": "string",
              "name": "image",
              "type": "string"
            }
          ],
          "internalType": "struct Election.Candidate",
          "name": "",
          "type": "tuple"
        }
      ],
      "stateMutability": "view",
      "type": "function",
      "constant": true
    }
  ],
  "bytecode": "0x608060405234801561001057600080fd5b50336000806101000a81548173ffffffffffffffffffffffffffffffffffffffff021916908373ffffffffffffffffffffffffffffffffffffffff160217905550600060018190555060006002819055506000600360006101000a81548160ff0219169083151502179055506000600360016101000a81548160ff02191690831515021790555060006004819055506142b7806100ae6000396000f3fe6080604052600436106101cd5760003560e01c806364d198a1116100f7578063ba71bef011610095578063de571e4811610064578063de571e4814610656578063e173730c14610681578063f851a440146106ac578063f8626af8146106d7576101cd565b8063ba71bef014610586578063be081b6f146105c3578063c5292c67146105ee578063da58c7d914610619576101cd565b80638e7ea5b2116100d15780638e7ea5b2146104dc5780639f05a36d14610507578063ad71f8dc14610532578063b2e6b9121461055b576101cd565b806364d198a11461045b5780636e9960c314610486578063831318f1146104b1576101cd565b806335bbe70e1161016f578063506b8e0a1161013e578063506b8e0a146103945780635938750d146103bd57806359f78468146104035780636247e5321461041a576101cd565b806335bbe70e146102ea5780634834317514610315578063485facba146103405780634ca098271461036b576101cd565b80630e2354cf116101ab5780630e2354cf146102425780631b04772b1461026d578063253e74e2146102965780632e6997fe146102bf576101cd565b80630121b93f146101d25780630b93400e146101fb5780630cdd53f614610226575b600080fd5b3480156101de57600080fd5b506101f960048036038101906101f49190612f9c565b610716565b005b34801561020757600080fd5b506102106108a2565b60405161021d9190612fd8565b60405180910390f35b610240600480360381019061023b9190612ff3565b6108ac565b005b34801561024e57600080fd5b506102576109ef565b60405161026491906130c3565b60405180910390f35b34801561027957600080fd5b50610294600480360381019061028f9190613143565b610a84565b005b3480156102a257600080fd5b506102bd60048036038101906102b891906132a5565b610de6565b005b3480156102cb57600080fd5b506102d4610f15565b6040516102e1919061354b565b60405180910390f35b3480156102f657600080fd5b506102ff61119f565b60405161030c9190613756565b60405180910390f35b34801561032157600080fd5b5061032a6116dd565b60405161033791906130c3565b60405180910390f35b34801561034c57600080fd5b50610355611772565b6040516103629190613869565b60405180910390f35b34801561037757600080fd5b50610392600480360381019061038d91906138b7565b61183b565b005b3480156103a057600080fd5b506103bb60048036038101906103b69190613a01565b611a9a565b005b3480156103c957600080fd5b506103e460048036038101906103df9190613143565b611b50565b6040516103fa9a99989796959493929190613a5f565b60405180910390f35b34801561040f57600080fd5b50610418611f1b565b005b34801561042657600080fd5b50610441600480360381019061043c9190612f9c565b611fab565b604051610452959493929190613b25565b60405180910390f35b34801561046757600080fd5b50610470612179565b60405161047d9190612fd8565b60405180910390f35b34801561049257600080fd5b5061049b612183565b6040516104a89190613b8d565b60405180910390f35b3480156104bd57600080fd5b506104c66121ac565b6040516104d391906130c3565b60405180910390f35b3480156104e857600080fd5b506104f1612241565b6040516104fe9190613c2c565b60405180910390f35b34801561051357600080fd5b5061051c61268e565b6040516105299190613c4e565b60405180910390f35b34801561053e57600080fd5b5061055960048036038101906105549190613c69565b6126a5565b005b34801561056757600080fd5b506105706127b9565b60405161057d9190613b8d565b60405180910390f35b34801561059257600080fd5b506105ad60048036038101906105a89190613143565b6127e2565b6040516105ba9190613e0d565b60405180910390f35b3480156105cf57600080fd5b506105d8612c4f565b6040516105e591906130c3565b60405180910390f35b3480156105fa57600080fd5b50610603612ce4565b6040516106109190613c4e565b60405180910390f35b34801561062557600080fd5b50610640600480360381019061063b9190612f9c565b612cfb565b60405161064d9190613b8d565b60405180910390f35b34801561066257600080fd5b5061066b612d3a565b6040516106789190612fd8565b60405180910390f35b34801561068d57600080fd5b50610696612d44565b6040516106a391906130c3565b60405180910390f35b3480156106b857600080fd5b506106c1612dd9565b6040516106ce9190613b8d565b60405180910390f35b3480156106e357600080fd5b506106fe60048036038101906106f99190612f9c565b612dfd565b60405161070d93929190613e2f565b60405180910390f35b60001515600c60003373ffffffffffffffffffffffffffffffffffffffff1673ffffffffffffffffffffffffffffffffffffffff16815260200190815260200160002060040160019054906101000a900460ff1615151461077657600080fd5b60011515600c60003373ffffffffffffffffffffffffffffffffffffffff1673ffffffffffffffffffffffffffffffffffffffff16815260200190815260200160002060040160009054906101000a900460ff161515146107d657600080fd5b60011515600360009054906101000a900460ff161515146107f657600080fd5b60001515600360019054906101000a900460ff1615151461081657600080fd5b600160056000838152602001908152602001600020600301600082825461083d9190613e95565b925050819055506001600c60003373ffffffffffffffffffffffffffffffffffffffff1673ffffffffffffffffffffffffffffffffffffffff16815260200190815260200160002060040160016101000a81548160ff02191690831515021790555050565b6000600254905090565b81600460008282546108be9190613e95565b92505081905550600060405180606001604052803373ffffffffffffffffffffffffffffffffffffffff168152602001848152602001838152509050600d81908060018154018082558091505060019003906000526020600020906003020160009091909190915060008201518160000160006101000a81548173ffffffffffffffffffffffffffffffffffffffff021916908373ffffffffffffffffffffffffffffffffffffffff1602179055506020820151816001015560408201518160020155505060008054906101000a900473ffffffffffffffffffffffffffffffffffffffff1673ffffffffffffffffffffffffffffffffffffffff166108fc849081150290604051600060405180830381858888f193505050501580156109e9573d6000803e3d6000fd5b50505050565b606060066000018054610a0190613ef8565b80601f0160208091040260200160405190810160405280929190818152602001828054610a2d90613ef8565b8015610a7a5780601f10610a4f57610100808354040283529160200191610a7a565b820191906000526020600020905b815481529060010190602001808311610a5d57829003601f168201915b5050505050905090565b60008054906101000a900473ffffffffffffffffffffffffffffffffffffffff1673ffffffffffffffffffffffffffffffffffffffff163373ffffffffffffffffffffffffffffffffffffffff1614610adc57600080fd5b60005b600b80549050811015610c68578173ffffffffffffffffffffffffffffffffffffffff16600b8281548110610b1757610b16613f29565b5b9060005260206000200160009054906101000a900473ffffffffffffffffffffffffffffffffffffffff1673ffffffffffffffffffffffffffffffffffffffff1603610c5557600b6001600b80549050610b719190613f58565b81548110610b8257610b81613f29565b5b9060005260206000200160009054906101000a900473ffffffffffffffffffffffffffffffffffffffff16600b8281548110610bc157610bc0613f29565b5b9060005260206000200160006101000a81548173ffffffffffffffffffffffffffffffffffffffff021916908373ffffffffffffffffffffffffffffffffffffffff160217905550600b805480610c1b57610c1a613f8c565b5b6001900381819060005260206000200160006101000a81549073ffffffffffffffffffffffffffffffffffffffff02191690559055610c68565b8080610c6090613fbb565b915050610adf565b506000600c60008373ffffffffffffffffffffffffffffffffffffffff1673ffffffffffffffffffffffffffffffffffffffff16815260200190815260200160002060040160026101000a81548160ff021916908315150217905550600160026000828254610cd79190613f58565b92505081905550600c60008273ffffffffffffffffffffffffffffffffffffffff1673ffffffffffffffffffffffffffffffffffffffff168152602001908152602001600020600080820160006101000a81549073ffffffffffffffffffffffffffffffffffffffff0219169055600182016000610d559190612e57565b600282016000610d659190612e57565b600382016000610d759190612e57565b6004820160006101000a81549060ff02191690556004820160016101000a81549060ff02191690556004820160026101000a81549060ff0219169055600582016000610dc19190612e57565b600682016000610dd19190612e57565b600782016000610de19190612e57565b505050565b60008054906101000a900473ffffffffffffffffffffffffffffffffffffffff1673ffffffffffffffffffffffffffffffffffffffff163373ffffffffffffffffffffffffffffffffffffffff1614610e3e57600080fd5b6040518060a001604052808681526020018581526020018481526020018381526020018281525060066000820151816000019081610e7c91906141af565b506020820151816001019081610e9291906141af565b506040820151816002019081610ea891906141af565b506060820151816003019081610ebe91906141af565b506080820151816004019081610ed491906141af565b509050506001600360006101000a81548160ff0219169083151502179055506000600360016101000a81548160ff0219169083151502179055505050505050565b6060600060015467ffffffffffffffff811115610f3557610f3461317a565b5b604051908082528060200260200182016040528015610f6e57816020015b610f5b612e97565b815260200190600190039081610f535790505b50905060005b60015481101561119757600560008281526020019081526020016000206040518060a001604052908160008201548152602001600182018054610fb690613ef8565b80601f0160208091040260200160405190810160405280929190818152602001828054610fe290613ef8565b801561102f5780601f106110045761010080835404028352916020019161102f565b820191906000526020600020905b81548152906001019060200180831161101257829003601f168201915b5050505050815260200160028201805461104890613ef8565b80601f016020809104026020016040519081016040528092919081815260200182805461107490613ef8565b80156110c15780601f10611096576101008083540402835291602001916110c1565b820191906000526020600020905b8154815290600101906020018083116110a457829003601f168201915b50505050508152602001600382015481526020016004820180546110e490613ef8565b80601f016020809104026020016040519081016040528092919081815260200182805461111090613ef8565b801561115d5780601f106111325761010080835404028352916020019161115d565b820191906000526020600020905b81548152906001019060200180831161114057829003601f168201915b50505050508152505082828151811061117957611178613f29565b5b6020026020010181905250808061118f90613fbb565b915050610f74565b508091505090565b6060600060025467ffffffffffffffff8111156111bf576111be61317a565b5b6040519080825280602002602001820160405280156111f857816020015b6111e5612ec6565b8152602001906001900390816111dd5790505b50905060005b6002548110156116d557600c6000600b83815481106112205761121f613f29565b5b9060005260206000200160009054906101000a900473ffffffffffffffffffffffffffffffffffffffff1673ffffffffffffffffffffffffffffffffffffffff1673ffffffffffffffffffffffffffffffffffffffff168152602001908152602001600020604051806101400160405290816000820160009054906101000a900473ffffffffffffffffffffffffffffffffffffffff1673ffffffffffffffffffffffffffffffffffffffff1673ffffffffffffffffffffffffffffffffffffffff1681526020016001820180546112f790613ef8565b80601f016020809104026020016040519081016040528092919081815260200182805461132390613ef8565b80156113705780601f1061134557610100808354040283529160200191611370565b820191906000526020600020905b81548152906001019060200180831161135357829003601f168201915b5050505050815260200160028201805461138990613ef8565b80601f01602080910402602001604051908101604052809291908181526020018280546113b590613ef8565b80156114025780601f106113d757610100808354040283529160200191611402565b820191906000526020600020905b8154815290600101906020018083116113e557829003601f168201915b5050505050815260200160038201805461141b90613ef8565b80601f016020809104026020016040519081016040528092919081815260200182805461144790613ef8565b80156114945780601f1061146957610100808354040283529160200191611494565b820191906000526020600020905b81548152906001019060200180831161147757829003601f168201915b505050505081526020016004820160009054906101000a900460ff161515151581526020016004820160019054906101000a900460ff161515151581526020016004820160029054906101000a900460ff161515151581526020016005820180546114fe90613ef8565b80601f016020809104026020016040519081016040528092919081815260200182805461152a90613ef8565b80156115775780601f1061154c57610100808354040283529160200191611577565b820191906000526020600020905b81548152906001019060200180831161155a57829003601f168201915b5050505050815260200160068201805461159090613ef8565b80601f01602080910402602001604051908101604052809291908181526020018280546115bc90613ef8565b80156116095780601f106115de57610100808354040283529160200191611609565b820191906000526020600020905b8154815290600101906020018083116115ec57829003601f168201915b5050505050815260200160078201805461162290613ef8565b80601f016020809104026020016040519081016040528092919081815260200182805461164e90613ef8565b801561169b5780601f106116705761010080835404028352916020019161169b565b820191906000526020600020905b81548152906001019060200180831161167e57829003601f168201915b5050505050815250508282815181106116b7576116b6613f29565b5b602002602001018190525080806116cd90613fbb565b9150506111fe565b508091505090565b6060600660040180546116ef90613ef8565b80601f016020809104026020016040519081016040528092919081815260200182805461171b90613ef8565b80156117685780601f1061173d57610100808354040283529160200191611768565b820191906000526020600020905b81548152906001019060200180831161174b57829003601f168201915b5050505050905090565b6060600d805480602002602001604051908101604052809291908181526020016000905b8282101561183257838290600052602060002090600302016040518060600160405290816000820160009054906101000a900473ffffffffffffffffffffffffffffffffffffffff1673ffffffffffffffffffffffffffffffffffffffff1673ffffffffffffffffffffffffffffffffffffffff1681526020016001820154815260200160028201548152505081526020019060010190611796565b50505050905090565b60006040518061014001604052803373ffffffffffffffffffffffffffffffffffffffff168152602001898152602001888152602001878152602001831515815260200160001515815260200160011515815260200186815260200185815260200184815250905080600c60003373ffffffffffffffffffffffffffffffffffffffff1673ffffffffffffffffffffffffffffffffffffffff16815260200190815260200160002060008201518160000160006101000a81548173ffffffffffffffffffffffffffffffffffffffff021916908373ffffffffffffffffffffffffffffffffffffffff160217905550602082015181600101908161193f91906141af565b50604082015181600201908161195591906141af565b50606082015181600301908161196b91906141af565b5060808201518160040160006101000a81548160ff02191690831515021790555060a08201518160040160016101000a81548160ff02191690831515021790555060c08201518160040160026101000a81548160ff02191690831515021790555060e08201518160050190816119e191906141af565b506101008201518160060190816119f891906141af565b50610120820151816007019081611a0f91906141af565b50905050600b339080600181540180825580915050600190039060005260206000200160009091909190916101000a81548173ffffffffffffffffffffffffffffffffffffffff021916908373ffffffffffffffffffffffffffffffffffffffff160217905550600160026000828254611a899190613e95565b925050819055505050505050505050565b60008054906101000a900473ffffffffffffffffffffffffffffffffffffffff1673ffffffffffffffffffffffffffffffffffffffff163373ffffffffffffffffffffffffffffffffffffffff1614611af257600080fd5b81600c60008373ffffffffffffffffffffffffffffffffffffffff1673ffffffffffffffffffffffffffffffffffffffff16815260200190815260200160002060040160006101000a81548160ff0219169083151502179055505050565b600c6020528060005260406000206000915090508060000160009054906101000a900473ffffffffffffffffffffffffffffffffffffffff1690806001018054611b9990613ef8565b80601f0160208091040260200160405190810160405280929190818152602001828054611bc590613ef8565b8015611c125780601f10611be757610100808354040283529160200191611c12565b820191906000526020600020905b815481529060010190602001808311611bf557829003601f168201915b505050505090806002018054611c2790613ef8565b80601f0160208091040260200160405190810160405280929190818152602001828054611c5390613ef8565b8015611ca05780601f10611c7557610100808354040283529160200191611ca0565b820191906000526020600020905b815481529060010190602001808311611c8357829003601f168201915b505050505090806003018054611cb590613ef8565b80601f0160208091040260200160405190810160405280929190818152602001828054611ce190613ef8565b8015611d2e5780601f10611d0357610100808354040283529160200191611d2e565b820191906000526020600020905b815481529060010190602001808311611d1157829003601f168201915b5050505050908060040160009054906101000a900460ff16908060040160019054906101000a900460ff16908060040160029054906101000a900460ff1690806005018054611d7c90613ef8565b80601f0160208091040260200160405190810160405280929190818152602001828054611da890613ef8565b8015611df55780601f10611dca57610100808354040283529160200191611df5565b820191906000526020600020905b815481529060010190602001808311611dd857829003601f168201915b505050505090806006018054611e0a90613ef8565b80601f0160208091040260200160405190810160405280929190818152602001828054611e3690613ef8565b8015611e835780601f10611e5857610100808354040283529160200191611e83565b820191906000526020600020905b815481529060010190602001808311611e6657829003601f168201915b505050505090806007018054611e9890613ef8565b80601f0160208091040260200160405190810160405280929190818152602001828054611ec490613ef8565b8015611f115780601f10611ee657610100808354040283529160200191611f11565b820191906000526020600020905b815481529060010190602001808311611ef457829003601f168201915b505050505090508a565b60008054906101000a900473ffffffffffffffffffffffffffffffffffffffff1673ffffffffffffffffffffffffffffffffffffffff163373ffffffffffffffffffffffffffffffffffffffff1614611f7357600080fd5b6001600360016101000a81548160ff0219169083151502179055506000600360006101000a81548160ff021916908315150217905550565b6005602052806000526040600020600091509050806000015490806001018054611fd490613ef8565b80601f016020809104026020016040519081016040528092919081815260200182805461200090613ef8565b801561204d5780601f106120225761010080835404028352916020019161204d565b820191906000526020600020905b81548152906001019060200180831161203057829003601f168201915b50505050509080600201805461206290613ef8565b80601f016020809104026020016040519081016040528092919081815260200182805461208e90613ef8565b80156120db5780601f106120b0576101008083540402835291602001916120db565b820191906000526020600020905b8154815290600101906020018083116120be57829003601f168201915b5050505050908060030154908060040180546120f690613ef8565b80601f016020809104026020016040519081016040528092919081815260200182805461212290613ef8565b801561216f5780601f106121445761010080835404028352916020019161216f565b820191906000526020600020905b81548152906001019060200180831161215257829003601f168201915b5050505050905085565b6000600154905090565b60008060009054906101000a900473ffffffffffffffffffffffffffffffffffffffff16905090565b6060600660010180546121be90613ef8565b80601f01602080910402602001604051908101604052809291908181526020018280546121ea90613ef8565b80156122375780601f1061220c57610100808354040283529160200191612237565b820191906000526020600020905b81548152906001019060200180831161221a57829003601f168201915b5050505050905090565b612249612e97565b60011515600360019054906101000a900460ff1615151461226957600080fd5b6000600560008081526020019081526020016000206040518060a0016040529081600082015481526020016001820180546122a390613ef8565b80601f01602080910402602001604051908101604052809291908181526020018280546122cf90613ef8565b801561231c5780601f106122f15761010080835404028352916020019161231c565b820191906000526020600020905b8154815290600101906020018083116122ff57829003601f168201915b5050505050815260200160028201805461233590613ef8565b80601f016020809104026020016040519081016040528092919081815260200182805461236190613ef8565b80156123ae5780601f10612383576101008083540402835291602001916123ae565b820191906000526020600020905b81548152906001019060200180831161239157829003601f168201915b50505050508152602001600382015481526020016004820180546123d190613ef8565b80601f01602080910402602001604051908101604052809291908181526020018280546123fd90613ef8565b801561244a5780601f1061241f5761010080835404028352916020019161244a565b820191906000526020600020905b81548152906001019060200180831161242d57829003601f168201915b50505050508152505090506000600190505b6001548110156126865781606001516005600083815260200190815260200160002060030154111561267357600560008281526020019081526020016000206040518060a0016040529081600082015481526020016001820180546124c090613ef8565b80601f01602080910402602001604051908101604052809291908181526020018280546124ec90613ef8565b80156125395780601f1061250e57610100808354040283529160200191612539565b820191906000526020600020905b81548152906001019060200180831161251c57829003601f168201915b5050505050815260200160028201805461255290613ef8565b80601f016020809104026020016040519081016040528092919081815260200182805461257e90613ef8565b80156125cb5780601f106125a0576101008083540402835291602001916125cb565b820191906000526020600020905b8154815290600101906020018083116125ae57829003601f168201915b50505050508152602001600382015481526020016004820180546125ee90613ef8565b80601f016020809104026020016040519081016040528092919081815260200182805461261a90613ef8565b80156126675780601f1061263c57610100808354040283529160200191612667565b820191906000526020600020905b81548152906001019060200180831161264a57829003601f168201915b50505050508152505091505b808061267e90613fbb565b91505061245c565b508091505090565b6000600360019054906101000a900460ff16905090565b60008054906101000a900473ffffffffffffffffffffffffffffffffffffffff1673ffffffffffffffffffffffffffffffffffffffff163373ffffffffffffffffffffffffffffffffffffffff16146126fd57600080fd5b60006040518060a001604052806001548152602001858152602001848152602001600081526020018381525090508060056000600154815260200190815260200160002060008201518160000155602082015181600101908161276091906141af565b50604082015181600201908161277691906141af565b5060608201518160030155608082015181600401908161279691906141af565b5090505060018060008282546127ac9190613e95565b9250508190555050505050565b60008060009054906101000a900473ffffffffffffffffffffffffffffffffffffffff16905090565b6127ea612ec6565b600c60008373ffffffffffffffffffffffffffffffffffffffff1673ffffffffffffffffffffffffffffffffffffffff168152602001908152602001600020604051806101400160405290816000820160009054906101000a900473ffffffffffffffffffffffffffffffffffffffff1673ffffffffffffffffffffffffffffffffffffffff1673ffffffffffffffffffffffffffffffffffffffff16815260200160018201805461289b90613ef8565b80601f01602080910402602001604051908101604052809291908181526020018280546128c790613ef8565b80156129145780601f106128e957610100808354040283529160200191612914565b820191906000526020600020905b8154815290600101906020018083116128f757829003601f168201915b5050505050815260200160028201805461292d90613ef8565b80601f016020809104026020016040519081016040528092919081815260200182805461295990613ef8565b80156129a65780601f1061297b576101008083540402835291602001916129a6565b820191906000526020600020905b81548152906001019060200180831161298957829003601f168201915b505050505081526020016003820180546129bf90613ef8565b80601f01602080910402602001604051908101604052809291908181526020018280546129eb90613ef8565b8015612a385780601f10612a0d57610100808354040283529160200191612a38565b820191906000526020600020905b815481529060010190602001808311612a1b57829003601f168201915b505050505081526020016004820160009054906101000a900460ff161515151581526020016004820160019054906101000a900460ff161515151581526020016004820160029054906101000a900460ff16151515158152602001600582018054612aa290613ef8565b80601f0160208091040260200160405190810160405280929190818152602001828054612ace90613ef8565b8015612b1b5780601f10612af057610100808354040283529160200191612b1b565b820191906000526020600020905b815481529060010190602001808311612afe57829003601f168201915b50505050508152602001600682018054612b3490613ef8565b80601f0160208091040260200160405190810160405280929190818152602001828054612b6090613ef8565b8015612bad5780601f10612b8257610100808354040283529160200191612bad565b820191906000526020600020905b815481529060010190602001808311612b9057829003601f168201915b50505050508152602001600782018054612bc690613ef8565b80601f0160208091040260200160405190810160405280929190818152602001828054612bf290613ef8565b8015612c3f5780601f10612c1457610100808354040283529160200191612c3f565b820191906000526020600020905b815481529060010190602001808311612c2257829003601f168201915b5050505050815250509050919050565b606060066002018054612c6190613ef8565b80601f0160208091040260200160405190810160405280929190818152602001828054612c8d90613ef8565b8015612cda5780601f10612caf57610100808354040283529160200191612cda565b820191906000526020600020905b815481529060010190602001808311612cbd57829003601f168201915b5050505050905090565b6000600360009054906101000a900460ff16905090565b600b8181548110612d0b57600080fd5b906000526020600020016000915054906101000a900473ffffffffffffffffffffffffffffffffffffffff1681565b6000600454905090565b606060066003018054612d5690613ef8565b80601f0160208091040260200160405190810160405280929190818152602001828054612d8290613ef8565b8015612dcf5780601f10612da457610100808354040283529160200191612dcf565b820191906000526020600020905b815481529060010190602001808311612db257829003601f168201915b5050505050905090565b60008054906101000a900473ffffffffffffffffffffffffffffffffffffffff1681565b600d8181548110612e0d57600080fd5b90600052602060002090600302016000915090508060000160009054906101000a900473ffffffffffffffffffffffffffffffffffffffff16908060010154908060020154905083565b508054612e6390613ef8565b6000825580601f10612e755750612e94565b601f016020900490600052602060002090810190612e939190612f35565b5b50565b6040518060a0016040528060008152602001606081526020016060815260200160008152602001606081525090565b604051806101400160405280600073ffffffffffffffffffffffffffffffffffffffff1681526020016060815260200160608152602001606081526020016000151581526020016000151581526020016000151581526020016060815260200160608152602001606081525090565b5b80821115612f4e576000816000905550600101612f36565b5090565b6000604051905090565b600080fd5b600080fd5b6000819050919050565b612f7981612f66565b8114612f8457600080fd5b50565b600081359050612f9681612f70565b92915050565b600060208284031215612fb257612fb1612f5c565b5b6000612fc084828501612f87565b91505092915050565b612fd281612f66565b82525050565b6000602082019050612fed6000830184612fc9565b92915050565b6000806040838503121561300a57613009612f5c565b5b600061301885828601612f87565b925050602061302985828601612f87565b9150509250929050565b600081519050919050565b600082825260208201905092915050565b60005b8381101561306d578082015181840152602081019050613052565b60008484015250505050565b6000601f19601f8301169050919050565b600061309582613033565b61309f818561303e565b93506130af81856020860161304f565b6130b881613079565b840191505092915050565b600060208201905081810360008301526130dd818461308a565b905092915050565b600073ffffffffffffffffffffffffffffffffffffffff82169050919050565b6000613110826130e5565b9050919050565b61312081613105565b811461312b57600080fd5b50565b60008135905061313d81613117565b92915050565b60006020828403121561315957613158612f5c565b5b60006131678482850161312e565b91505092915050565b600080fd5b600080fd5b7f4e487b7100000000000000000000000000000000000000000000000000000000600052604160045260246000fd5b6131b282613079565b810181811067ffffffffffffffff821117156131d1576131d061317a565b5b80604052505050565b60006131e4612f52565b90506131f082826131a9565b919050565b600067ffffffffffffffff8211156132105761320f61317a565b5b61321982613079565b9050602081019050919050565b82818337600083830152505050565b6000613248613243846131f5565b6131da565b90508281526020810184848401111561326457613263613175565b5b61326f848285613226565b509392505050565b600082601f83011261328c5761328b613170565b5b813561329c848260208601613235565b91505092915050565b600080600080600060a086880312156132c1576132c0612f5c565b5b600086013567ffffffffffffffff8111156132df576132de612f61565b5b6132eb88828901613277565b955050602086013567ffffffffffffffff81111561330c5761330b612f61565b5b61331888828901613277565b945050604086013567ffffffffffffffff81111561333957613338612f61565b5b61334588828901613277565b935050606086013567ffffffffffffffff81111561336657613365612f61565b5b61337288828901613277565b925050608086013567ffffffffffffffff81111561339357613392612f61565b5b61339f88828901613277565b9150509295509295909350565b600081519050919050565b600082825260208201905092915050565b6000819050602082019050919050565b6133e181612f66565b82525050565b600082825260208201905092915050565b600061340382613033565b61340d81856133e7565b935061341d81856020860161304f565b61342681613079565b840191505092915050565b600060a08301600083015161344960008601826133d8565b506020830151848203602086015261346182826133f8565b9150506040830151848203604086015261347b82826133f8565b915050606083015161349060608601826133d8565b50608083015184820360808601526134a882826133f8565b9150508091505092915050565b60006134c18383613431565b905092915050565b6000602082019050919050565b60006134e1826133ac565b6134eb81856133b7565b9350836020820285016134fd856133c8565b8060005b85811015613539578484038952815161351a85826134b5565b9450613525836134c9565b925060208a01995050600181019050613501565b50829750879550505050505092915050565b6000602082019050818103600083015261356581846134d6565b905092915050565b600081519050919050565b600082825260208201905092915050565b6000819050602082019050919050565b6135a281613105565b82525050565b60008115159050919050565b6135bd816135a8565b82525050565b6000610140830160008301516135dc6000860182613599565b50602083015184820360208601526135f482826133f8565b9150506040830151848203604086015261360e82826133f8565b9150506060830151848203606086015261362882826133f8565b915050608083015161363d60808601826135b4565b5060a083015161365060a08601826135b4565b5060c083015161366360c08601826135b4565b5060e083015184820360e086015261367b82826133f8565b91505061010083015184820361010086015261369782826133f8565b9150506101208301518482036101208601526136b382826133f8565b9150508091505092915050565b60006136cc83836135c3565b905092915050565b6000602082019050919050565b60006136ec8261356d565b6136f68185613578565b93508360208202850161370885613589565b8060005b85811015613744578484038952815161372585826136c0565b9450613730836136d4565b925060208a0199505060018101905061370c565b50829750879550505050505092915050565b6000602082019050818103600083015261377081846136e1565b905092915050565b600081519050919050565b600082825260208201905092915050565b6000819050602082019050919050565b6060820160008201516137ba6000850182613599565b5060208201516137cd60208501826133d8565b5060408201516137e060408501826133d8565b50505050565b60006137f283836137a4565b60608301905092915050565b6000602082019050919050565b600061381682613778565b6138208185613783565b935061382b83613794565b8060005b8381101561385c57815161384388826137e6565b975061384e836137fe565b92505060018101905061382f565b5085935050505092915050565b60006020820190508181036000830152613883818461380b565b905092915050565b613894816135a8565b811461389f57600080fd5b50565b6000813590506138b18161388b565b92915050565b600080600080600080600060e0888a0312156138d6576138d5612f5c565b5b600088013567ffffffffffffffff8111156138f4576138f3612f61565b5b6139008a828b01613277565b975050602088013567ffffffffffffffff81111561392157613920612f61565b5b61392d8a828b01613277565b965050604088013567ffffffffffffffff81111561394e5761394d612f61565b5b61395a8a828b01613277565b955050606088013567ffffffffffffffff81111561397b5761397a612f61565b5b6139878a828b01613277565b945050608088013567ffffffffffffffff8111156139a8576139a7612f61565b5b6139b48a828b01613277565b93505060a088013567ffffffffffffffff8111156139d5576139d4612f61565b5b6139e18a828b01613277565b92505060c06139f28a828b016138a2565b91505092959891949750929550565b60008060408385031215613a1857613a17612f5c565b5b6000613a26858286016138a2565b9250506020613a378582860161312e565b9150509250929050565b613a4a81613105565b82525050565b613a59816135a8565b82525050565b600061014082019050613a75600083018d613a41565b8181036020830152613a87818c61308a565b90508181036040830152613a9b818b61308a565b90508181036060830152613aaf818a61308a565b9050613abe6080830189613a50565b613acb60a0830188613a50565b613ad860c0830187613a50565b81810360e0830152613aea818661308a565b9050818103610100830152613aff818561308a565b9050818103610120830152613b14818461308a565b90509b9a5050505050505050505050565b600060a082019050613b3a6000830188612fc9565b8181036020830152613b4c818761308a565b90508181036040830152613b60818661308a565b9050613b6f6060830185612fc9565b8181036080830152613b81818461308a565b90509695505050505050565b6000602082019050613ba26000830184613a41565b92915050565b600060a083016000830151613bc060008601826133d8565b5060208301518482036020860152613bd882826133f8565b91505060408301518482036040860152613bf282826133f8565b9150506060830151613c0760608601826133d8565b5060808301518482036080860152613c1f82826133f8565b9150508091505092915050565b60006020820190508181036000830152613c468184613ba8565b905092915050565b6000602082019050613c636000830184613a50565b92915050565b600080600060608486031215613c8257613c81612f5c565b5b600084013567ffffffffffffffff811115613ca057613c9f612f61565b5b613cac86828701613277565b935050602084013567ffffffffffffffff811115613ccd57613ccc612f61565b5b613cd986828701613277565b925050604084013567ffffffffffffffff811115613cfa57613cf9612f61565b5b613d0686828701613277565b9150509250925092565b600061014083016000830151613d296000860182613599565b5060208301518482036020860152613d4182826133f8565b91505060408301518482036040860152613d5b82826133f8565b91505060608301518482036060860152613d7582826133f8565b9150506080830151613d8a60808601826135b4565b5060a0830151613d9d60a08601826135b4565b5060c0830151613db060c08601826135b4565b5060e083015184820360e0860152613dc882826133f8565b915050610100830151848203610100860152613de482826133f8565b915050610120830151848203610120860152613e0082826133f8565b9150508091505092915050565b60006020820190508181036000830152613e278184613d10565b905092915050565b6000606082019050613e446000830186613a41565b613e516020830185612fc9565b613e5e6040830184612fc9565b949350505050565b7f4e487b7100000000000000000000000000000000000000000000000000000000600052601160045260246000fd5b6000613ea082612f66565b9150613eab83612f66565b9250828201905080821115613ec357613ec2613e66565b5b92915050565b7f4e487b7100000000000000000000000000000000000000000000000000000000600052602260045260246000fd5b60006002820490506001821680613f1057607f821691505b602082108103613f2357613f22613ec9565b5b50919050565b7f4e487b7100000000000000000000000000000000000000000000000000000000600052603260045260246000fd5b6000613f6382612f66565b9150613f6e83612f66565b9250828203905081811115613f8657613f85613e66565b5b92915050565b7f4e487b7100000000000000000000000000000000000000000000000000000000600052603160045260246000fd5b6000613fc682612f66565b91507fffffffffffffffffffffffffffffffffffffffffffffffffffffffffffffffff8203613ff857613ff7613e66565b5b600182019050919050565b60008190508160005260206000209050919050565b60006020601f8301049050919050565b600082821b905092915050565b6000600883026140657fffffffffffffffffffffffffffffffffffffffffffffffffffffffffffffffff82614028565b61406f8683614028565b95508019841693508086168417925050509392505050565b6000819050919050565b60006140ac6140a76140a284612f66565b614087565b612f66565b9050919050565b6000819050919050565b6140c683614091565b6140da6140d2826140b3565b848454614035565b825550505050565b600090565b6140ef6140e2565b6140fa8184846140bd565b505050565b5b8181101561411e576141136000826140e7565b600181019050614100565b5050565b601f8211156141635761413481614003565b61413d84614018565b8101602085101561414c578190505b61416061415885614018565b8301826140ff565b50505b505050565b600082821c905092915050565b600061418660001984600802614168565b1980831691505092915050565b600061419f8383614175565b9150826002028217905092915050565b6141b882613033565b67ffffffffffffffff8111156141d1576141d061317a565b5b6141db8254613ef8565b6141e6828285614122565b600060209050601f8311600181146142195760008415614207578287015190505b6142118582614193565b865550614279565b601f19841661422786614003565b60005b8281101561424f5784890151825560018201915060208501945060208101905061422a565b8683101561426c5784890151614268601f891682614175565b8355505b6001600288020188555050505b50505050505056fea264697066735822122014d89b3e65941163a733f2afc57e1250542bc7a7d2db3bfca200c158069422c264736f6c63430008120033",
  "immutableReferences": {},
  "source": "// SPDX-License-Identifier: MIT\r\npragma solidity >=0.4.21 <0.9.0;\r\n\r\ncontract Election {\r\n    address public admin;\r\n    uint256 candidateCount;\r\n    uint256 voterCount;\r\n    bool start;\r\n    bool end;\r\n    uint256 collectedAmount;\r\n\r\n    constructor() {\r\n        admin = msg.sender;\r\n        candidateCount = 0;\r\n        voterCount = 0;\r\n        start = false;\r\n        end = false;\r\n        collectedAmount = 0;\r\n    }\r\n\r\n    function getAdmin() public view returns (address) {\r\n        return admin;\r\n    }\r\n\r\n    modifier onlyAdmin() {\r\n        require(msg.sender == admin);\r\n        _;\r\n    }\r\n\r\n    struct Candidate {\r\n        uint256 candidateId;\r\n        string header;\r\n        string slogan;\r\n        uint256 voteCount;\r\n        string image;\r\n    }\r\n    mapping(uint256 => Candidate) public candidateDetails;\r\n\r\n    function addCandidate(\r\n        string memory _header,\r\n        string memory _slogan,\r\n        string memory _image\r\n    ) public onlyAdmin {\r\n        Candidate memory newCandidate = Candidate({\r\n            candidateId: candidateCount,\r\n            header: _header,\r\n            slogan: _slogan,\r\n            voteCount: 0,\r\n            image: _image\r\n        });\r\n        candidateDetails[candidateCount] = newCandidate;\r\n        candidateCount += 1;\r\n    }\r\n\r\n    struct ElectionDetails {\r\n        string adminName;\r\n        string adminEmail;\r\n        string adminTitle;\r\n        string electionTitle;\r\n        string organizationTitle;\r\n    }\r\n    ElectionDetails electionDetails;\r\n\r\n    function setElectionDetails(\r\n        string memory _adminName,\r\n        string memory _adminEmail,\r\n        string memory _adminTitle,\r\n        string memory _electionTitle,\r\n        string memory _organizationTitle\r\n    )\r\n        public\r\n        // Only admin can add\r\n        onlyAdmin\r\n    {\r\n        electionDetails = ElectionDetails(\r\n            _adminName,\r\n            _adminEmail,\r\n            _adminTitle,\r\n            _electionTitle,\r\n            _organizationTitle\r\n        );\r\n        start = true;\r\n        end = false;\r\n    }\r\n\r\n    function getAllCandidates() public view returns (Candidate[] memory) {\r\n        Candidate[] memory candidates = new Candidate[](candidateCount);\r\n        for (uint256 i = 0; i < candidateCount; i++) {\r\n            candidates[i] = candidateDetails[i];\r\n        }\r\n        return candidates;\r\n    }\r\n\r\n    function getAdminName() public view returns (string memory) {\r\n        return electionDetails.adminName;\r\n    }\r\n\r\n    function getAdminAddress() public view returns (address) {\r\n        return admin;\r\n    }\r\n\r\n    function getAdminEmail() public view returns (string memory) {\r\n        return electionDetails.adminEmail;\r\n    }\r\n\r\n    function getAdminTitle() public view returns (string memory) {\r\n        return electionDetails.adminTitle;\r\n    }\r\n\r\n    function getElectionTitle() public view returns (string memory) {\r\n        return electionDetails.electionTitle;\r\n    }\r\n\r\n    function getOrganizationTitle() public view returns (string memory) {\r\n        return electionDetails.organizationTitle;\r\n    }\r\n\r\n    function getTotalCandidate() public view returns (uint256) {\r\n        return candidateCount;\r\n    }\r\n\r\n    function getTotalVoter() public view returns (uint256) {\r\n        return voterCount;\r\n    }\r\n\r\n    struct Voter {\r\n        address voterAddress;\r\n        string name;\r\n        string email;\r\n        string phone;\r\n        bool isVerified;\r\n        bool hasVoted;\r\n        bool isRegistered;\r\n        string govId;\r\n        string currentImage;\r\n        string voterIdNumber;\r\n    }\r\n    address[] public voters;\r\n    mapping(address => Voter) public voterDetails;\r\n\r\n    struct donationDetails {\r\n        address donorAddress;\r\n        uint256 amount;\r\n        uint256 donetedTo;\r\n    }\r\n\r\n    donationDetails[] public donations;\r\n\r\n    function donate(uint256 _amount, uint256 _donetedTo) public payable {\r\n        collectedAmount += _amount;\r\n        donationDetails memory newDonation = donationDetails({\r\n            donorAddress: msg.sender,\r\n            donetedTo: _donetedTo,\r\n            amount: _amount\r\n        });\r\n        donations.push(newDonation);\r\n        payable(admin).transfer(_amount);\r\n    }\r\n\r\n    function getCollectedAmount() public view returns (uint256) {\r\n        return collectedAmount;\r\n    }\r\n\r\n    function getDonationDetails()\r\n        public\r\n        view\r\n        returns (donationDetails[] memory)\r\n    {\r\n        return donations;\r\n    }\r\n\r\n    function registerAsVoter(\r\n        string memory _name,\r\n        string memory _email,\r\n        string memory _phone,\r\n        string memory _govId,\r\n        string memory _currentImage,\r\n        string memory _voterIdNumber,\r\n        bool _isVerified\r\n    ) public {\r\n        Voter memory newVoter = Voter({\r\n            voterAddress: msg.sender,\r\n            name: _name,\r\n            email: _email,\r\n            phone: _phone,\r\n            hasVoted: false,\r\n            isVerified: _isVerified,\r\n            isRegistered: true,\r\n            govId: _govId,\r\n            currentImage: _currentImage,\r\n            voterIdNumber: _voterIdNumber\r\n        });\r\n        voterDetails[msg.sender] = newVoter;\r\n        voters.push(msg.sender);\r\n        voterCount += 1;\r\n    }\r\n\r\n    function verifyVoter(\r\n        bool _verifedStatus,\r\n        address voterAddress\r\n    ) public onlyAdmin {\r\n        voterDetails[voterAddress].isVerified = _verifedStatus;\r\n    }\r\n\r\n    function rejectVoter(address voterAddress) public onlyAdmin {\r\n        for (uint256 i = 0; i < voters.length; i++) {\r\n            if (voters[i] == voterAddress) {\r\n                voters[i] = voters[voters.length - 1];\r\n                voters.pop();\r\n                break;\r\n            }\r\n        }\r\n        voterDetails[voterAddress].isRegistered = false;\r\n        voterCount -= 1;\r\n        delete voterDetails[voterAddress];\r\n    }\r\n\r\n    function vote(uint256 candidateId) public {\r\n        require(voterDetails[msg.sender].hasVoted == false);\r\n        require(voterDetails[msg.sender].isVerified == true);\r\n        require(start == true);\r\n        require(end == false);\r\n        candidateDetails[candidateId].voteCount += 1;\r\n        voterDetails[msg.sender].hasVoted = true;\r\n    }\r\n\r\n    function endElection() public onlyAdmin {\r\n        end = true;\r\n        start = false;\r\n    }\r\n\r\n    function getVoterDetails(\r\n        address voterAddress\r\n    ) public view returns (Voter memory) {\r\n        return voterDetails[voterAddress];\r\n    }\r\n\r\n    function getAllVoters() public view returns (Voter[] memory) {\r\n        Voter[] memory votersList = new Voter[](voterCount);\r\n        for (uint256 i = 0; i < voterCount; i++) {\r\n            votersList[i] = voterDetails[voters[i]];\r\n        }\r\n        return votersList;\r\n    }\r\n\r\n    function getStart() public view returns (bool) {\r\n        return start;\r\n    }\r\n\r\n    function getEnd() public view returns (bool) {\r\n        return end;\r\n    }\r\n\r\n    function getWinner() public view returns (Candidate memory) {\r\n        require(end == true);\r\n        Candidate memory winner = candidateDetails[0];\r\n        for (uint256 i = 1; i < candidateCount; i++) {\r\n            if (candidateDetails[i].voteCount > winner.voteCount) {\r\n                winner = candidateDetails[i];\r\n            }\r\n        }\r\n        return winner;\r\n    }\r\n}",
  "sourcePath": "C:\\Users\\asus\\Downloads\\votingDappbha1\\decentralizedVotingUsingBlockchain\\contracts\\Election.sol",
  "compiler": {
    "name": "solc",
    "version": "0.8.18+commit.87f61d96.Emscripten.clang"
  },
  "schemaVersion": "3.4.12",
  "updatedAt": "2023-03-20T13:46:01.433Z",
  "networkType": "ethereum",
  "devdoc": {
    "kind": "dev",
    "methods": {},
    "version": 1
  },
  "userdoc": {
    "kind": "user",
    "methods": {},
    "version": 1
  }
}